:1000000078C0000094C0000092C0000090C00000C2
:100010008EC000008CC000008AC0000088C00000B4
:1000200086C0000084C0000082C0000080C00000C4
:100030007EC00000B2C000007AC0000078C000009E
:1000400076C0000074C0000072C0000070C00000E4
:100050006EC000006CC000006AC0000068C00000F4
:1000600066C0000064C0000062C0000060C0000004
:100070005EC000005CC000005AC0000058C0000014
:1000800056C0000054C0000052C00000AB01B401D3
:10009000BD01C601CF01D801E101EA01F301FC0174
:1000A00005020E0217022D0234023B0242024502F3
:1000B00045024B02510284025702A5044F05640514
:1000C000AF04E704E40464052105280534053A0576
:1000D0004005640564054E065B05610564059C05E5
:1000E0004E067205A005B005C305F305220691056D
:1000F000860511241FBECFEFD0E4DEBFCDBF14E0D4
:10010000A0E0B1E0EAE8F5E100E00BBF02C0079033
:100110000D92A431B107D9F724E0A4E1B4E001C005
:100120001D92A236B207E1F7C5D50C94C30A68CF79
:100130006093420370934303809344039093450379
:100140006093430470934404809345049093460461
:1001500008958BE0809381008DE790E09093890073
:100160008093880082E080936F0010928500109247
:1001700084008091420390914303A0914403B09185
:1001800045038093430490934404A0934504B093A3
:1001900046048FB780688FBF08951F920F920FB6E5
:1001A0000F9211248F939F93AF93BF938091430439
:1001B00090914404A0914504B09146040197A1098F
:1001C000B1098093430490934404A0934504B093F1
:1001D0004604892B8A2B8B2B99F481E0809347046A
:1001E0008091420390914303A0914403B091450351
:1001F0008093430490934404A0934504B093460431
:10020000BF91AF919F918F910F900FBE0F901F9054
:100210001895181619065CF0089500002150310950
:10022000E1F74F5F5F4F8417950719F4089540E099
:1002300050E027E033E0F1CF12988BB9139A000019
:10024000139882E090E0E5CF089581E0F5CF08951E
:10025000813118F48158F0CF08958155EDCF08957C
:1002600084E690E0D6DF88E3E7DF86E0E5DF8FE035
:10027000E3DF81E0E1DF8AE090E0CBCF0895129ADE
:100280008BB9139A0000139881E090E0C2CF0895D3
:100290001F93CF93DF93FB019081992351F0EB01E2
:1002A00011E0180FD5DF8991EADF812F9881911134
:1002B000F7CFDF91CF911F910895FB0101900020AE
:1002C000E9F73197E61BF70BE0933D049F013327D5
:1002D0001216130674F4FC01DB01280F391F81E0AC
:1002E00050E041919D914913852FE217F307C9F71B
:1002F000089581E0089502D683709078992324F4BC
:1003000001978C6F9F6F019608950F931F93CF9362
:10031000DF938B01880F880F880F805C8DDFE801E9
:10032000085F1F4F8991ABDFC017D107D9F780E86D
:1003300083DFDF91CF911F910F910895CF93962F77
:10034000482F50E04D30510508F079C0C92FFA010F
:10035000EA5BFF4F6FC56AED72E080E0D6DF8C2F5D
:1003600077DF80E08CDF6BC062ED72E081E0CDDF93
:100370008C2F6EDF81E083DF62C06AEC72E082E086
:10038000C4DF8C2F65DF82E07ADF59C062EC72E057
:1003900083E0BBDF8C2F5CDF83E071DF50C06AEB52
:1003A00072E084E0B2DF8C2F53DF84E068DF47C067
:1003B00062EB72E085E0A9DF8C2F4ADF85E05FDF2A
:1003C0003EC06AEA72E086E0A0DF8C2F41DF86E063
:1003D00056DF35C062EB72E085E097DF8C2F38DFA7
:1003E00085E04DDF2CC06AEB72E084E08EDF8C2F5D
:1003F0002FDF84E044DF23C062EC72E083E085DF1E
:100400008C2F26DF83E03BDF1AC06AEC72E082E0CB
:100410007CDF8C2F1DDF82E032DF11C062ED72E0E5
:1004200081E073DF8C2F14DF81E029DF08C06AEDE3
:1004300072E080E06ADF8C2F0BDF80E020DFCF915D
:10044000089520B1207320932A048A30910508F082
:100450007AC0FC01ED5AFF4FEDC480913004843125
:1004600008F471C0F2DE7DC080912F04803208F460
:1004700078C0EBDE9AC080913104823308F495C0D5
:10048000E4DEA1C0211125C09EC080912D048E31D3
:1004900020F1DBDE3CC080912C048E31C0F1D5DE32
:1004A00044C080912B048E3108F43FC024C02091B9
:1004B0006104213009F494C0109231041092300488
:1004C00010922E0410922D0410922C0410922B04E2
:1004D0003AC0BBDE84E090E008956091080170911D
:1004E000090181E0D5DE80912D048F5F80932D047A
:1004F00085E090E0089581E08093610410923704D4
:10050000A4DE88E090E0089589E090E0089560918D
:1005100006017091070181E0BBDE80912C048F5FA2
:1005200080932C0486E090E008956091040170911E
:10053000050181E0ADDE80912B048F5F80932B0459
:1005400087E090E0089560910E0170910F0181E0C5
:100550009FDE809130048F5F8093300480E090E0D4
:1005600008956091320480913304E8DE8091330471
:1005700090E001966CE070E028D480933304809181
:10058000320490E001968F719078992324F40197BA
:10059000806E9F6F01968093320480912F048F5F4D
:1005A00080932F0481E090E0089560910C01709198
:1005B0000D0181E06DDE809131048F5F8093310405
:1005C00082E090E0089560910A0170910B0181E052
:1005D0005FDE80912E048F5F80932E0483E090E095
:1005E0000895FC0101900020E9F7319760831182A2
:1005F00008950F931F93CF93DF93CDB7DEB728975E
:100600000FB6F894DEBF0FBECDBF88E0E6E4F3E09E
:10061000DE01119601900D928A95E1F76CDE9093C0
:100620004A0480934904892B09F022C163EA72E0ED
:1006300007E512E09E01275F3F4F25C0808180952E
:1006400085B98D9188B98CEC9AE00197F1F700C0DB
:100650000000819185B92E173F0781F74F5F5F4FEB
:1006600080913A0390913B03481759071CF006C04C
:1006700040E050E0FE013196DB01E0CF61507109AE
:100680000617170741F080913A0390913B03181623
:10069000190674F3F3CF15B818B8EAC080818095B5
:1006A00085B98D9188B98CEC9AE00197F1F700C07B
:1006B0000000819185B92E173F0781F74F5F5F4F8B
:1006C00080913A0390913B03481759071CF006C0EC
:1006D00040E050E0FE013196DB01E0CF615071094E
:1006E0000617170741F080913A0390913B031816C3
:1006F000190674F3F3CF15B818B880914904909196
:100700004A0482309105E9F52AC0029709F0C0C079
:1007100026C08081809585B98D9188B98CEC9AE04E
:100720000197F1F700C00000819185B92E173F07AE
:1007300081F74F5F5F4F80913A0390913B034817D9
:1007400059071CF006C040E050E0FE013196DB0185
:10075000E0CF615071096017710741F40FC068E084
:1007600072E00CEB11E09E01275F3F4F80913A034E
:1007700090913B031816190634F3EBCF15B818B84F
:1007800087C0039709F08DC026C08081809585B908
:100790008D9188B98CEC9AE00197F1F700C00000C8
:1007A000819185B9E217F30781F74F5F5F4F809121
:1007B0003A0390913B03481759071CF006C040E0EC
:1007C00050E0FE013196DB01E0CF61507109601706
:1007D000710741F40FC06FEB71E003E711E09E0178
:1007E000275F3F4F80913A0390913B0318161906FB
:1007F00034F3EBCF15B818B854C00497B1F526C040
:100800008081809585B98D9188B98CEC9AE00197AB
:10081000F1F700C00000819185B9E217F30781F775
:100820004F5F5F4F80913A0390913B034817590700
:100830001CF006C040E050E0FE013196DB01E0CF45
:10084000615071090617170741F40FC064E771E0A2
:100850000FE011E09E01275F3F4F80913A03909196
:100860003B031816190634F3EBCF15B818B820C09F
:100870008091490490914A048130910509F045CF57
:1008800061E572E005E012E09E01275F3F4F2BCF4C
:100890008091490490914A048330910509F0ADCFCD
:1008A0009ACF8091490490914A040497F1F6CECFF3
:1008B00028960FB6F894DEBF0FBECDBFDF91CF9163
:1008C0001F910F910895EAE7F0E0808181688083AD
:1008D000ECE7F0E0808180648083089580E4809379
:1008E0007C00EAE7F0E0808180648083808184FF7F
:1008F000FDCFE8E7F0E08081918190933C04809304
:100900003B041182108280913B0490913C04089535
:100910000F931F93CF93DF93CDB7DEB7A4970FB696
:10092000F894DEBF0FBECDBF8C0180B18071809383
:100930003F0490B1907290933E040E30110508F080
:10094000A8C1F801E35AFF4F75C291E080E0209101
:100950006104211101C090E0092F182FA2C0BEDF51
:100960008093400420913F04211196C19927209142
:10097000400330914103A9014E5C5F4F481759076E
:1009800034F4809142048A3108F4CBC09DC02456CF
:1009900031098217930734F4809142048A3108F4B4
:1009A000B5C092C080913E04882309F48DC0E091C7
:1009B0004204F0E0E15EFC4F60816093480470E027
:1009C0008BE494E00EDEB8C0811168C18BC08091C9
:1009D000490490914A04009741F462E073E08BE48B
:1009E00094E06BDC80933A0427C08130910541F498
:1009F0006AEF72E08BE494E060DC80933A041CC000
:100A00008230910541F463EF72E08BE494E055DCB1
:100A100080933A0411C0039741F46CEE72E08BE4CA
:100A200094E04BDC80933A0407C062EE72E08BE402
:100A300094E043DC80933A0480913A04811190C0A1
:100A40007FC080913804823308F47AC0FEDB9BC0FB
:100A500080913904823308F483C0F7DB8091370436
:100A60008F5F809337048FC080913504823308F400
:100A70008AC0B9C0809134048E3108F4B4C0E2C099
:100A800080913A04882331F081E08093610400E092
:100A900010E004C11092610400E010E0FFC002E029
:100AA00010E00E30110520F4F801E559FF4FC2C1E6
:100AB00000E010E0F3C01FDC90934A0480934904E7
:100AC000EDC0C3DB96DDEAC0809141048F5FC0DBDF
:100AD000E0914204F0E0E15EFC4F8081D0DB03E076
:100AE00010E0DCC0E0914204F0E0E15EFC4F608188
:100AF0006093480470E08BE494E073DD80914104DE
:100B00008F5F8093410406E010E0C8C080914204EA
:100B1000882309F4B8C08150809342040DE010E0AE
:100B2000BDC080914204893108F0B0C08F5F8093CE
:100B300042040CE010E0B2C088DB04E010E0AEC07C
:100B400060913E0370913F0381E0A2DB8091380405
:100B50008F5F8093380410923A0407E010E09EC043
:100B600060913C0370913D0381E092DB80913904F8
:100B70008F5F8093390481E08093610480933A040D
:100B800008E010E08BC080913A04882371F06EE495
:100B900073E081E07DDB8DE05BDBE0913704F0E02A
:100BA000E65FFC4F80816BDB0DC06BE573E081E09D
:100BB0006FDB8DE04DDBE0913704F0E0E65FFC4F4A
:100BC00080815DDB6091370480913604861718F4CC
:100BD00080E190E08FD4809135048F5F809335045D
:100BE00009E010E05BC080E190E07CD41F928F931D
:100BF00088E693E09F938F938E010F5D1F4F1F93A5
:100C00000F9395D18DE0EBE6F3E0DE0111960190B4
:100C10000D928A95E1F7B801CE0101967DD1BE0112
:100C20006F5F7F4F81E034DB809134048F5F80936E
:100C300034040F900F900F900F900F900F900AE0D8
:100C400010E02CC01092420410924104FEDA80E0C1
:100C5000FFDA10924B0410925F041092600410921D
:100C60003904109238041092340480913A03909120
:100C70003B03019790933B0380933A031092350412
:100C80000BE010E00BC00DE010E008C00CE010E03D
:100C900005C000E010E002C005E010E0C801A49625
:100CA0000FB6F894DEBF0FBECDBFDF91CF911F917D
:100CB0000F910895CF93DF9300D000D0CDB7DEB76A
:100CC0008CE081B98FEF82B98AB91BB884B915B8A5
:100CD00087B918B8AFE1B4E0BA83A983E4E1F4E0DE
:100CE000FC83EB831C9242E050E060E070E01196E0
:100CF0004D935D936D937C93149715964D935D93EF
:100D00006D937C93189781E292E01A969C938E9350
:100D10001997108281E090E0A0E0B0E08183928397
:100D2000A383B48385839683A783B08788E894E000
:100D3000928781876BE470E080E090E0F9D909DA6E
:100D40008FDAC1DD7E0185E0E80EF11CDE0111962F
:100D50006D01F601019111916F01D80115964D9128
:100D60005D916D917C91189711968D919D910D904B
:100D7000BC91A02D481759076A077B0781F4F80139
:100D800080810184F285E02D082E000C990B0995D5
:100D9000D8018C93F8011582168217821086F8010B
:100DA00085819681A781B0850196A11DB11D85839E
:100DB0009683A783B087CE14DF0459F68091470449
:100DC0008823E1F310924704C1CF97FB072E16F456
:100DD000009406D077FD08D036D007FC05D03EF44D
:100DE000909581959F4F0895709561957F4F0895D7
:100DF000A1E21A2EAA1BBB1BFD010DC0AA1FBB1F1F
:100E0000EE1FFF1FA217B307E407F50720F0A21B90
:100E1000B30BE40BF50B661F771F881F991F1A94FD
:100E200069F760957095809590959B01AC01BD0127
:100E3000CF010895EE0FFF1F0024001C0BBE07908A
:100E4000F691E02D0994AA1BBB1B51E107C0AA1F14
:100E5000BB1FA617B70710F0A61BB70B881F991F5B
:100E60005A95A9F780959095BC01CD0108958F9270
:100E70009F92AF92BF92CF92DF92EF92FF92CF9369
:100E8000DF93EC01688179818A819B81611571050D
:100E90008105910521F464E279ED8BE597E02DE180
:100EA00033EF41E050E034D349015A019B01AC01DA
:100EB000A7EAB1E449D36B017C01ACEEB4EFA50124
:100EC00094014ED3DC01CB018C0D9D1DAE1DBF1DC9
:100ED000B7FF03C00197A109B04888839983AA830B
:100EE000BB839F77DF91CF91FF90EF90DF90CF9002
:100EF000BF90AF909F908F900895B9CF80E091E020
:100F0000B6CFA0E0B0E08093000190930101A093E0
:100F10000201B09303010895FB01DC010D90002054
:100F2000E9F7119701900D920020E1F708950F93D2
:100F30001F93CF93DF93CDB7DEB72E970FB6F894FC
:100F4000DEBF0FBECDBF0D891E8986E08C831A835C
:100F500009838FEF9FE79E838D83AE01475E5F4FCE
:100F60006F89788DCE01019610D0EF81F885E00F62
:100F7000F11F10822E960FB6F894DEBF0FBECDBFC4
:100F8000DF91CF911F910F9108952F923F924F9231
:100F90005F926F927F928F929F92AF92BF92CF9209
:100FA000DF92EF92FF920F931F93CF93DF93CDB712
:100FB000DEB72B970FB6F894DEBF0FBECDBF6C0126
:100FC0007B018A01FC0117821682838181FFBFC1E8
:100FD000CE0101963C01F6019381F70193FD8591C5
:100FE00093FF81917F01882309F4ADC1853239F4E3
:100FF00093FD859193FF81917F01853221F4B601A4
:1010000090E0D6D1E8CF912C212C312CFFE1F315C3
:10101000D8F08B3279F038F4803279F08332A1F451
:10102000232D20611DC08D3261F0803369F4232DA2
:10103000216016C0832D8260382EE32DE4603E2EA1
:101040002AC0F32DF8601DC037FC2DC020ED280FFD
:101050002A3040F08E32B9F436FC75C1232D20645D
:10106000322E19C036FE06C08AE0989E200D11244B
:10107000922E11C0EAE02E9E200D1124222EF32D77
:10108000F0623F2E08C08C3621F4832D8068382E04
:1010900002C0883641F4F70193FD859193FF819159
:1010A0007F018111B3CF982F9F7D9554933028F401
:1010B0000C5F1F4F9FE399830DC0833631F0833758
:1010C00071F0833509F055C020C0F8018081898313
:1010D0000E5F1F4F88248394912C530112C0280166
:1010E000F2E04F0E511CF801A080B18036FE03C023
:1010F000692D70E002C06FEF7FEFC5014ED14C014A
:101100008201F32DFF773F2E15C0280122E0420E09
:10111000511CF801A080B18036FE03C0692D70E03B
:1011200002C06FEF7FEFC5012DD14C01F32DF068A8
:101130003F2E820133FC19C0822D90E0881699065B
:10114000A0F4B60180E290E033D12A94F5CFF50106
:1011500037FC859137FE81915F01B60190E028D17F
:1011600021102A9421E0821A91088114910479F7C0
:10117000E1C0843611F0893639F5F80137FE07C031
:1011800060817181828193810C5F1F4F08C06081F3
:101190007181072E000C880B990B0E5F1F4FF32DEA
:1011A000FF763F2E97FF09C09095809570956195C9
:1011B0007F4F8F4F9F4FF0683F2E2AE030E0A30112
:1011C00033D1882E861844C0853731F4232D2F7EE5
:1011D000B22E2AE030E025C0932D997FB92E8F36AC
:1011E000C1F018F4883579F0AEC0803719F088372F
:1011F00021F0A9C0E92FE061BE2EB4FE0DC0FB2D89
:10120000F460BF2E09C034FE0AC0292F2660B22E1A
:1012100006C028E030E005C020E130E002C020E157
:1012200032E0F801B7FE07C060817181828193814D
:101230000C5F1F4F06C06081718180E090E00E5FFF
:101240001F4FA301F1D0882E8618FB2DFF773F2E6C
:1012500036FE0DC0232D2E7FA22E891458F434FEA5
:101260000BC032FC09C0832D8E7EA82E05C0B82C81
:10127000A32C03C0B82C01C0B92CA4FE0FC0FE01E2
:10128000E80DF11D8081803321F49A2D997EA92EDD
:1012900009C0A2FE06C0B394B39404C08A2D867818
:1012A00009F0B394A3FC10C0A0FE06C0B21480F4F1
:1012B000280C922C9B180DC0B21458F4B60180E291
:1012C00090E076D0B394F8CFB21418F42B1802C083
:1012D000982C212CA4FE0FC0B60180E390E068D0CA
:1012E000A2FE16C0A1FC03C088E790E002C088E51A
:1012F00090E0B6010CC08A2D867851F0A1FE02C0A4
:101300008BE201C080E2A7FC8DE2B60190E050D0F4
:10131000891430F4B60180E390E04AD09A94F8CF73
:101320008A94F301E80DF11D8081B60190E040D070
:101330008110F6CF222009F44ECEB60180E290E073
:1013400037D02A94F7CFF6018681978102C08FEFBC
:101350009FEF2B960FB6F894DEBF0FBECDBFDF9187
:10136000CF911F910F91FF90EF90DF90CF90BF90A2
:10137000AF909F908F907F906F905F904F903F9035
:101380002F900895FC010590615070400110D8F72E
:10139000809590958E0F9F1F0895FC0161507040BD
:1013A00001900110D8F7809590958E0F9F1F08959A
:1013B0000F931F93CF93DF93FB01238121FD03C084
:1013C0008FEF9FEF2CC022FF16C0468157812481EA
:1013D00035814217530744F4A081B1819D012F5FED
:1013E0003F4F318320838C93268137812F5F3F4F7E
:1013F0003783268314C08B01EC01FB010084F18547
:10140000E02D0995892BE1F6D80116968D919C91D6
:101410001797019617969C938E931697CE01DF919E
:10142000CF911F910F910895FA01AA27283051F109
:10143000203181F1E8946F936E7F6E5F7F4F8F4F05
:101440009F4FAF4FB1E03ED0B4E03CD0670F781F64
:10145000891F9A1FA11D680F791F8A1F911DA11D49
:101460006A0F711D811D911DA11D20D009F4689482
:101470003F912AE0269F11243019305D3193DEF62A
:10148000CF010895462F4770405D4193B3E00FD0E0
:10149000C9F7F6CF462F4F70405D4A3318F0495DCB
:1014A00031FD4052419302D0A9F7EACFB4E0A695AE
:1014B0009795879577956795BA95C9F700976105D0
:1014C000710508959B01AC010A2E06945795479526
:1014D00037952795BA95C9F7620F731F841F951F1B
:1014E000A01D0895F999FECF92BD81BDF89A992764
:1014F00080B50895262FF999FECF1FBA92BD81BD00
:1015000020BD0FB6F894FA9AF99A0FBE0196089585
:10151000052E97FB16F400940FD057FD05D068DC1C
:1015200007FC02D046F408C05095409530952195AF
:101530003F4F4F4F5F4F08959095809570956195FF
:101540007F4F8F4F9F4F08950FD0A59F900DB49F51
:10155000900DA49F800D911D11240895B7FFF4CF25
:10156000F3DF821B930B0895A29FB001B39FC001CC
:10157000A39F700D811D1124911DB29F700D811DBF
:0A1580001124911D0895F894FFCF87
:10158A000100000078038503A403C103D003E0032C
:10159A000000000000000040E0703F3F70E04000A3
:1015AA0000C3C3C3C3E77E3C0000FFFF1C3870E0E2
:1015BA00FFFF00007FFFCCCCCCFF7F0000DBDBDB32
:1015CA00DBDBFFFF000079FBDFDEDCD8FFFF00007A
:1015DA00C3C3C3C3E77E3C0000DBDBDBDBDBFFFF0F
:1015EA00000079FBDFDEDCD8FFFF0000000000000E
:1015FA000000000000000000000000C0C0C0FFFFA3
:10160A00C0C0C00000FFFF1C3870E0FFFF0000DB15
:10161A00DBDBDBDBFFFF0000FFFF60707060FFFFBA
:10162A0000007EFFC3C3C3C3FF7E0000D8D8D8D84A
:10163A00D8FFFF00000000000000000000000000CA
:10164A0000000000C0C0C0FFFFC0C0C00000FFFF14
:10165A001C3870E0FFFF00007FFFCCCCCCFF7F007E
:10166A000079FBDFDEDCD8FFFF000079FBDFDEDC80
:10167A00D8FFFF00007FFFCCCCCCFF7F000000002A
:10168A0000000000000000000000000000DBDBDBBF
:10169A00DBDBFFFF0000030303030303FFFF00007C
:1016AA003C7EDBDBDBFFFF00003C7EDBDBDBFFFF9E
:1016BA000000C3C3C3FFFFC3C3C30000FEFF03038D
:1016CA000303FFFE00007EFFCFDFDBC3FF7E0000C7
:1016DA000000000000000000000000000000000000
:1016EA00DBDBDBDBDBFFFF00007EBDC3C3C3FFFF29
:1016FA000000FEFF03030303FFFE000003030303CE
:10170A000303FFFF0000C3C3C3C3E77E3C0000C35B
:10171A00C3C3C3E77E3C00007EFFC3C3C3C3FF7ECF
:10172A0000000000000000000000FFFF00000000B1
:10173A0000000000FFFF0000000000000000FFFFA3
:10174A000000000000000000FFFF00000000FFFF93
:10175A0000000000FFFF00000000FFFF0000000083
:10176A0000005245435245414E435900464F4D45AC
:10177A004E5400415252414E540051554942424C36
:10178A0045004F43434C55444500313233343536D6
:10179A003738393031323334353637383930004119
:1017AA0042434445464748494A4B4C4D4E4F505197
:1017BA0052535455565758595A000F00FA03090400
:1017CA008D000100000001020408102040804E65CF
:1017DA007874204C6576656C3A20004C61737420ED
:1017EA004C6576656C3A2000256400486967682074
:1017FA0053636F72653A20004C6576656C204F6EB4
:10180A00652E2E2E004163636570743A2059656C0B
:10181A006C6F772020202020202020202042757401
:10182A00746F6E004E6578743A20426C756520209C
:10183A0020202020202020202020427574746F6EE2
:10184A0000507265737320746F2053746172740050
:10185A00205370656C6C696E672047616D65210065
:10186A0057656C636F6D6520746F3A004E45585426
:10187A00204C4556454C2E2E2E004C4556454C20A4
:10188A00434F4D504C4554450047414D45204F5616
:04189A0045520000B3
:00000001FF
